{
	"data": {
		"bytecode": {
			"linkReferences": {},
			"object": "6080604052600060015534801561001557600080fd5b50610e84806100256000396000f3fe6080604052600436106100555760003560e01c80634f7d94181461005a5780637c5716ee146100985780639412c7dd146100d5578063b01c963b146100f1578063be4ee9f614610131578063ffcbae5a1461015a575b600080fd5b34801561006657600080fd5b50610081600480360381019061007c9190610943565b610185565b60405161008f929190610abe565b60405180910390f35b3480156100a457600080fd5b506100bf60048036038101906100ba91906109cc565b610265565b6040516100cc9190610b2c565b60405180910390f35b6100ef60048036038101906100ea919061099f565b610310565b005b3480156100fd57600080fd5b506101186004803603810190610113919061099f565b61040b565b6040516101289493929190610ae7565b60405180910390f35b34801561013d57600080fd5b506101586004803603810190610153919061099f565b610468565b005b34801561016657600080fd5b5061016f6106d0565b60405161017c9190610b4e565b60405180910390f35b600080600184511161019a57610199610d3f565b5b600073ffffffffffffffffffffffffffffffffffffffff168373ffffffffffffffffffffffffffffffffffffffff1614156101ee57836000815181106101e3576101e2610d9d565b5b602002602001015191505b600073ffffffffffffffffffffffffffffffffffffffff168373ffffffffffffffffffffffffffffffffffffffff161461025e57600061022e8585610737565b90508460018261023e9190610bf3565b8151811061024f5761024e610d9d565b5b60200260200101519250809150505b9250929050565b606060008084815260200190815260200160002060060160008373ffffffffffffffffffffffffffffffffffffffff1673ffffffffffffffffffffffffffffffffffffffff16815260200190815260200160002080548060200260200160405190810160405280929190818152602001828054801561030357602002820191906000526020600020905b8154815260200190600101908083116102ef575b5050505050905092915050565b610319816107c3565b6000806000838152602001908152602001600020905080600001339080600181540180825580915050600190039060005260206000200160009091909190916101000a81548173ffffffffffffffffffffffffffffffffffffffff021916908373ffffffffffffffffffffffffffffffffffffffff160217905550348160050160003373ffffffffffffffffffffffffffffffffffffffff1673ffffffffffffffffffffffffffffffffffffffff16815260200190815260200160002060008282546103e59190610bf3565b92505081905550348160030160008282546104009190610bf3565b925050819055505050565b60006020528060005260406000206000915090508060010160009054906101000a900473ffffffffffffffffffffffffffffffffffffffff16908060020154908060030154908060040160009054906101000a900460ff16905084565b600080600083815260200190815260200160002090506000806105378360000180548060200260200160405190810160405280929190818152602001828054801561050857602002820191906000526020600020905b8160009054906101000a900473ffffffffffffffffffffffffffffffffffffffff1673ffffffffffffffffffffffffffffffffffffffff16815260200190600101908083116104be575b50505050508460010160009054906101000a900473ffffffffffffffffffffffffffffffffffffffff16610185565b915091508173ffffffffffffffffffffffffffffffffffffffff163373ffffffffffffffffffffffffffffffffffffffff161461057757610576610d3f565b5b826002015442101561058c5761058b610d3f565b5b3373ffffffffffffffffffffffffffffffffffffffff166108fc84600301549081150290604051600060405180830381858888f193505050501580156105d6573d6000803e3d6000fd5b50600183600001805490506105eb9190610c49565b8114156105fc576105fb846107f6565b5b8260060160003373ffffffffffffffffffffffffffffffffffffffff1673ffffffffffffffffffffffffffffffffffffffff1681526020019081526020016000208360030154908060018154018082558091505060019003906000526020600020016000909190919091505582600301548360030160008282546106809190610c49565b92505081905550818360010160006101000a81548173ffffffffffffffffffffffffffffffffffffffff021916908373ffffffffffffffffffffffffffffffffffffffff16021790555050505050565b600080600080600154815260200190815260200160002090506064426106f69190610bf3565b816002018190555060018160040160006101000a81548160ff0219169083151502179055506001600081548092919061072e90610cf6565b91905055505090565b6000600183511161074b5761074a610d3f565b5b60005b83518110156107bc5783818151811061076a57610769610d9d565b5b602002602001015173ffffffffffffffffffffffffffffffffffffffff168373ffffffffffffffffffffffffffffffffffffffff1614156107a9578091505b80806107b490610cf6565b91505061074e565b5092915050565b60008082815260200190815260200160002060040160009054906101000a900460ff166107f3576107f2610d3f565b5b50565b600080600083815260200190815260200160002060010160006101000a81548173ffffffffffffffffffffffffffffffffffffffff021916908373ffffffffffffffffffffffffffffffffffffffff160217905550606460008083815260200190815260200160002060020160008282546108719190610bf3565b9250508190555050565b600061088e61088984610b8e565b610b69565b905080838252602082019050828560208602820111156108b1576108b0610e00565b5b60005b858110156108e157816108c788826108eb565b8452602084019350602083019250506001810190506108b4565b5050509392505050565b6000813590506108fa81610e20565b92915050565b600082601f83011261091557610914610dfb565b5b813561092584826020860161087b565b91505092915050565b60008135905061093d81610e37565b92915050565b6000806040838503121561095a57610959610e0a565b5b600083013567ffffffffffffffff81111561097857610977610e05565b5b61098485828601610900565b9250506020610995858286016108eb565b9150509250929050565b6000602082840312156109b5576109b4610e0a565b5b60006109c38482850161092e565b91505092915050565b600080604083850312156109e3576109e2610e0a565b5b60006109f18582860161092e565b9250506020610a02858286016108eb565b9150509250929050565b6000610a188383610aa0565b60208301905092915050565b610a2d81610c7d565b82525050565b6000610a3e82610bca565b610a488185610be2565b9350610a5383610bba565b8060005b83811015610a84578151610a6b8882610a0c565b9750610a7683610bd5565b925050600181019050610a57565b5085935050505092915050565b610a9a81610c8f565b82525050565b610aa981610cbb565b82525050565b610ab881610cbb565b82525050565b6000604082019050610ad36000830185610a24565b610ae06020830184610aaf565b9392505050565b6000608082019050610afc6000830187610a24565b610b096020830186610aaf565b610b166040830185610aaf565b610b236060830184610a91565b95945050505050565b60006020820190508181036000830152610b468184610a33565b905092915050565b6000602082019050610b636000830184610aaf565b92915050565b6000610b73610b84565b9050610b7f8282610cc5565b919050565b6000604051905090565b600067ffffffffffffffff821115610ba957610ba8610dcc565b5b602082029050602081019050919050565b6000819050602082019050919050565b600081519050919050565b6000602082019050919050565b600082825260208201905092915050565b6000610bfe82610cbb565b9150610c0983610cbb565b9250827fffffffffffffffffffffffffffffffffffffffffffffffffffffffffffffffff03821115610c3e57610c3d610d6e565b5b828201905092915050565b6000610c5482610cbb565b9150610c5f83610cbb565b925082821015610c7257610c71610d6e565b5b828203905092915050565b6000610c8882610c9b565b9050919050565b60008115159050919050565b600073ffffffffffffffffffffffffffffffffffffffff82169050919050565b6000819050919050565b610cce82610e0f565b810181811067ffffffffffffffff82111715610ced57610cec610dcc565b5b80604052505050565b6000610d0182610cbb565b91507fffffffffffffffffffffffffffffffffffffffffffffffffffffffffffffffff821415610d3457610d33610d6e565b5b600182019050919050565b7f4e487b7100000000000000000000000000000000000000000000000000000000600052600160045260246000fd5b7f4e487b7100000000000000000000000000000000000000000000000000000000600052601160045260246000fd5b7f4e487b7100000000000000000000000000000000000000000000000000000000600052603260045260246000fd5b7f4e487b7100000000000000000000000000000000000000000000000000000000600052604160045260246000fd5b600080fd5b600080fd5b600080fd5b600080fd5b6000601f19601f8301169050919050565b610e2981610c7d565b8114610e3457600080fd5b50565b610e4081610cbb565b8114610e4b57600080fd5b5056fea26469706673582212205caeca9329c996274c33d997cd36aef3c82a98a4d47fafc2f1700a564937535864736f6c63430008060033",
			"opcodes": "PUSH1 0x80 PUSH1 0x40 MSTORE PUSH1 0x0 PUSH1 0x1 SSTORE CALLVALUE DUP1 ISZERO PUSH2 0x15 JUMPI PUSH1 0x0 DUP1 REVERT JUMPDEST POP PUSH2 0xE84 DUP1 PUSH2 0x25 PUSH1 0x0 CODECOPY PUSH1 0x0 RETURN INVALID PUSH1 0x80 PUSH1 0x40 MSTORE PUSH1 0x4 CALLDATASIZE LT PUSH2 0x55 JUMPI PUSH1 0x0 CALLDATALOAD PUSH1 0xE0 SHR DUP1 PUSH4 0x4F7D9418 EQ PUSH2 0x5A JUMPI DUP1 PUSH4 0x7C5716EE EQ PUSH2 0x98 JUMPI DUP1 PUSH4 0x9412C7DD EQ PUSH2 0xD5 JUMPI DUP1 PUSH4 0xB01C963B EQ PUSH2 0xF1 JUMPI DUP1 PUSH4 0xBE4EE9F6 EQ PUSH2 0x131 JUMPI DUP1 PUSH4 0xFFCBAE5A EQ PUSH2 0x15A JUMPI JUMPDEST PUSH1 0x0 DUP1 REVERT JUMPDEST CALLVALUE DUP1 ISZERO PUSH2 0x66 JUMPI PUSH1 0x0 DUP1 REVERT JUMPDEST POP PUSH2 0x81 PUSH1 0x4 DUP1 CALLDATASIZE SUB DUP2 ADD SWAP1 PUSH2 0x7C SWAP2 SWAP1 PUSH2 0x943 JUMP JUMPDEST PUSH2 0x185 JUMP JUMPDEST PUSH1 0x40 MLOAD PUSH2 0x8F SWAP3 SWAP2 SWAP1 PUSH2 0xABE JUMP JUMPDEST PUSH1 0x40 MLOAD DUP1 SWAP2 SUB SWAP1 RETURN JUMPDEST CALLVALUE DUP1 ISZERO PUSH2 0xA4 JUMPI PUSH1 0x0 DUP1 REVERT JUMPDEST POP PUSH2 0xBF PUSH1 0x4 DUP1 CALLDATASIZE SUB DUP2 ADD SWAP1 PUSH2 0xBA SWAP2 SWAP1 PUSH2 0x9CC JUMP JUMPDEST PUSH2 0x265 JUMP JUMPDEST PUSH1 0x40 MLOAD PUSH2 0xCC SWAP2 SWAP1 PUSH2 0xB2C JUMP JUMPDEST PUSH1 0x40 MLOAD DUP1 SWAP2 SUB SWAP1 RETURN JUMPDEST PUSH2 0xEF PUSH1 0x4 DUP1 CALLDATASIZE SUB DUP2 ADD SWAP1 PUSH2 0xEA SWAP2 SWAP1 PUSH2 0x99F JUMP JUMPDEST PUSH2 0x310 JUMP JUMPDEST STOP JUMPDEST CALLVALUE DUP1 ISZERO PUSH2 0xFD JUMPI PUSH1 0x0 DUP1 REVERT JUMPDEST POP PUSH2 0x118 PUSH1 0x4 DUP1 CALLDATASIZE SUB DUP2 ADD SWAP1 PUSH2 0x113 SWAP2 SWAP1 PUSH2 0x99F JUMP JUMPDEST PUSH2 0x40B JUMP JUMPDEST PUSH1 0x40 MLOAD PUSH2 0x128 SWAP5 SWAP4 SWAP3 SWAP2 SWAP1 PUSH2 0xAE7 JUMP JUMPDEST PUSH1 0x40 MLOAD DUP1 SWAP2 SUB SWAP1 RETURN JUMPDEST CALLVALUE DUP1 ISZERO PUSH2 0x13D JUMPI PUSH1 0x0 DUP1 REVERT JUMPDEST POP PUSH2 0x158 PUSH1 0x4 DUP1 CALLDATASIZE SUB DUP2 ADD SWAP1 PUSH2 0x153 SWAP2 SWAP1 PUSH2 0x99F JUMP JUMPDEST PUSH2 0x468 JUMP JUMPDEST STOP JUMPDEST CALLVALUE DUP1 ISZERO PUSH2 0x166 JUMPI PUSH1 0x0 DUP1 REVERT JUMPDEST POP PUSH2 0x16F PUSH2 0x6D0 JUMP JUMPDEST PUSH1 0x40 MLOAD PUSH2 0x17C SWAP2 SWAP1 PUSH2 0xB4E JUMP JUMPDEST PUSH1 0x40 MLOAD DUP1 SWAP2 SUB SWAP1 RETURN JUMPDEST PUSH1 0x0 DUP1 PUSH1 0x1 DUP5 MLOAD GT PUSH2 0x19A JUMPI PUSH2 0x199 PUSH2 0xD3F JUMP JUMPDEST JUMPDEST PUSH1 0x0 PUSH20 0xFFFFFFFFFFFFFFFFFFFFFFFFFFFFFFFFFFFFFFFF AND DUP4 PUSH20 0xFFFFFFFFFFFFFFFFFFFFFFFFFFFFFFFFFFFFFFFF AND EQ ISZERO PUSH2 0x1EE JUMPI DUP4 PUSH1 0x0 DUP2 MLOAD DUP2 LT PUSH2 0x1E3 JUMPI PUSH2 0x1E2 PUSH2 0xD9D JUMP JUMPDEST JUMPDEST PUSH1 0x20 MUL PUSH1 0x20 ADD ADD MLOAD SWAP2 POP JUMPDEST PUSH1 0x0 PUSH20 0xFFFFFFFFFFFFFFFFFFFFFFFFFFFFFFFFFFFFFFFF AND DUP4 PUSH20 0xFFFFFFFFFFFFFFFFFFFFFFFFFFFFFFFFFFFFFFFF AND EQ PUSH2 0x25E JUMPI PUSH1 0x0 PUSH2 0x22E DUP6 DUP6 PUSH2 0x737 JUMP JUMPDEST SWAP1 POP DUP5 PUSH1 0x1 DUP3 PUSH2 0x23E SWAP2 SWAP1 PUSH2 0xBF3 JUMP JUMPDEST DUP2 MLOAD DUP2 LT PUSH2 0x24F JUMPI PUSH2 0x24E PUSH2 0xD9D JUMP JUMPDEST JUMPDEST PUSH1 0x20 MUL PUSH1 0x20 ADD ADD MLOAD SWAP3 POP DUP1 SWAP2 POP POP JUMPDEST SWAP3 POP SWAP3 SWAP1 POP JUMP JUMPDEST PUSH1 0x60 PUSH1 0x0 DUP1 DUP5 DUP2 MSTORE PUSH1 0x20 ADD SWAP1 DUP2 MSTORE PUSH1 0x20 ADD PUSH1 0x0 KECCAK256 PUSH1 0x6 ADD PUSH1 0x0 DUP4 PUSH20 0xFFFFFFFFFFFFFFFFFFFFFFFFFFFFFFFFFFFFFFFF AND PUSH20 0xFFFFFFFFFFFFFFFFFFFFFFFFFFFFFFFFFFFFFFFF AND DUP2 MSTORE PUSH1 0x20 ADD SWAP1 DUP2 MSTORE PUSH1 0x20 ADD PUSH1 0x0 KECCAK256 DUP1 SLOAD DUP1 PUSH1 0x20 MUL PUSH1 0x20 ADD PUSH1 0x40 MLOAD SWAP1 DUP2 ADD PUSH1 0x40 MSTORE DUP1 SWAP3 SWAP2 SWAP1 DUP2 DUP2 MSTORE PUSH1 0x20 ADD DUP3 DUP1 SLOAD DUP1 ISZERO PUSH2 0x303 JUMPI PUSH1 0x20 MUL DUP3 ADD SWAP2 SWAP1 PUSH1 0x0 MSTORE PUSH1 0x20 PUSH1 0x0 KECCAK256 SWAP1 JUMPDEST DUP2 SLOAD DUP2 MSTORE PUSH1 0x20 ADD SWAP1 PUSH1 0x1 ADD SWAP1 DUP1 DUP4 GT PUSH2 0x2EF JUMPI JUMPDEST POP POP POP POP POP SWAP1 POP SWAP3 SWAP2 POP POP JUMP JUMPDEST PUSH2 0x319 DUP2 PUSH2 0x7C3 JUMP JUMPDEST PUSH1 0x0 DUP1 PUSH1 0x0 DUP4 DUP2 MSTORE PUSH1 0x20 ADD SWAP1 DUP2 MSTORE PUSH1 0x20 ADD PUSH1 0x0 KECCAK256 SWAP1 POP DUP1 PUSH1 0x0 ADD CALLER SWAP1 DUP1 PUSH1 0x1 DUP2 SLOAD ADD DUP1 DUP3 SSTORE DUP1 SWAP2 POP POP PUSH1 0x1 SWAP1 SUB SWAP1 PUSH1 0x0 MSTORE PUSH1 0x20 PUSH1 0x0 KECCAK256 ADD PUSH1 0x0 SWAP1 SWAP2 SWAP1 SWAP2 SWAP1 SWAP2 PUSH2 0x100 EXP DUP2 SLOAD DUP2 PUSH20 0xFFFFFFFFFFFFFFFFFFFFFFFFFFFFFFFFFFFFFFFF MUL NOT AND SWAP1 DUP4 PUSH20 0xFFFFFFFFFFFFFFFFFFFFFFFFFFFFFFFFFFFFFFFF AND MUL OR SWAP1 SSTORE POP CALLVALUE DUP2 PUSH1 0x5 ADD PUSH1 0x0 CALLER PUSH20 0xFFFFFFFFFFFFFFFFFFFFFFFFFFFFFFFFFFFFFFFF AND PUSH20 0xFFFFFFFFFFFFFFFFFFFFFFFFFFFFFFFFFFFFFFFF AND DUP2 MSTORE PUSH1 0x20 ADD SWAP1 DUP2 MSTORE PUSH1 0x20 ADD PUSH1 0x0 KECCAK256 PUSH1 0x0 DUP3 DUP3 SLOAD PUSH2 0x3E5 SWAP2 SWAP1 PUSH2 0xBF3 JUMP JUMPDEST SWAP3 POP POP DUP2 SWAP1 SSTORE POP CALLVALUE DUP2 PUSH1 0x3 ADD PUSH1 0x0 DUP3 DUP3 SLOAD PUSH2 0x400 SWAP2 SWAP1 PUSH2 0xBF3 JUMP JUMPDEST SWAP3 POP POP DUP2 SWAP1 SSTORE POP POP POP JUMP JUMPDEST PUSH1 0x0 PUSH1 0x20 MSTORE DUP1 PUSH1 0x0 MSTORE PUSH1 0x40 PUSH1 0x0 KECCAK256 PUSH1 0x0 SWAP2 POP SWAP1 POP DUP1 PUSH1 0x1 ADD PUSH1 0x0 SWAP1 SLOAD SWAP1 PUSH2 0x100 EXP SWAP1 DIV PUSH20 0xFFFFFFFFFFFFFFFFFFFFFFFFFFFFFFFFFFFFFFFF AND SWAP1 DUP1 PUSH1 0x2 ADD SLOAD SWAP1 DUP1 PUSH1 0x3 ADD SLOAD SWAP1 DUP1 PUSH1 0x4 ADD PUSH1 0x0 SWAP1 SLOAD SWAP1 PUSH2 0x100 EXP SWAP1 DIV PUSH1 0xFF AND SWAP1 POP DUP5 JUMP JUMPDEST PUSH1 0x0 DUP1 PUSH1 0x0 DUP4 DUP2 MSTORE PUSH1 0x20 ADD SWAP1 DUP2 MSTORE PUSH1 0x20 ADD PUSH1 0x0 KECCAK256 SWAP1 POP PUSH1 0x0 DUP1 PUSH2 0x537 DUP4 PUSH1 0x0 ADD DUP1 SLOAD DUP1 PUSH1 0x20 MUL PUSH1 0x20 ADD PUSH1 0x40 MLOAD SWAP1 DUP2 ADD PUSH1 0x40 MSTORE DUP1 SWAP3 SWAP2 SWAP1 DUP2 DUP2 MSTORE PUSH1 0x20 ADD DUP3 DUP1 SLOAD DUP1 ISZERO PUSH2 0x508 JUMPI PUSH1 0x20 MUL DUP3 ADD SWAP2 SWAP1 PUSH1 0x0 MSTORE PUSH1 0x20 PUSH1 0x0 KECCAK256 SWAP1 JUMPDEST DUP2 PUSH1 0x0 SWAP1 SLOAD SWAP1 PUSH2 0x100 EXP SWAP1 DIV PUSH20 0xFFFFFFFFFFFFFFFFFFFFFFFFFFFFFFFFFFFFFFFF AND PUSH20 0xFFFFFFFFFFFFFFFFFFFFFFFFFFFFFFFFFFFFFFFF AND DUP2 MSTORE PUSH1 0x20 ADD SWAP1 PUSH1 0x1 ADD SWAP1 DUP1 DUP4 GT PUSH2 0x4BE JUMPI JUMPDEST POP POP POP POP POP DUP5 PUSH1 0x1 ADD PUSH1 0x0 SWAP1 SLOAD SWAP1 PUSH2 0x100 EXP SWAP1 DIV PUSH20 0xFFFFFFFFFFFFFFFFFFFFFFFFFFFFFFFFFFFFFFFF AND PUSH2 0x185 JUMP JUMPDEST SWAP2 POP SWAP2 POP DUP2 PUSH20 0xFFFFFFFFFFFFFFFFFFFFFFFFFFFFFFFFFFFFFFFF AND CALLER PUSH20 0xFFFFFFFFFFFFFFFFFFFFFFFFFFFFFFFFFFFFFFFF AND EQ PUSH2 0x577 JUMPI PUSH2 0x576 PUSH2 0xD3F JUMP JUMPDEST JUMPDEST DUP3 PUSH1 0x2 ADD SLOAD TIMESTAMP LT ISZERO PUSH2 0x58C JUMPI PUSH2 0x58B PUSH2 0xD3F JUMP JUMPDEST JUMPDEST CALLER PUSH20 0xFFFFFFFFFFFFFFFFFFFFFFFFFFFFFFFFFFFFFFFF AND PUSH2 0x8FC DUP5 PUSH1 0x3 ADD SLOAD SWAP1 DUP2 ISZERO MUL SWAP1 PUSH1 0x40 MLOAD PUSH1 0x0 PUSH1 0x40 MLOAD DUP1 DUP4 SUB DUP2 DUP6 DUP9 DUP9 CALL SWAP4 POP POP POP POP ISZERO DUP1 ISZERO PUSH2 0x5D6 JUMPI RETURNDATASIZE PUSH1 0x0 DUP1 RETURNDATACOPY RETURNDATASIZE PUSH1 0x0 REVERT JUMPDEST POP PUSH1 0x1 DUP4 PUSH1 0x0 ADD DUP1 SLOAD SWAP1 POP PUSH2 0x5EB SWAP2 SWAP1 PUSH2 0xC49 JUMP JUMPDEST DUP2 EQ ISZERO PUSH2 0x5FC JUMPI PUSH2 0x5FB DUP5 PUSH2 0x7F6 JUMP JUMPDEST JUMPDEST DUP3 PUSH1 0x6 ADD PUSH1 0x0 CALLER PUSH20 0xFFFFFFFFFFFFFFFFFFFFFFFFFFFFFFFFFFFFFFFF AND PUSH20 0xFFFFFFFFFFFFFFFFFFFFFFFFFFFFFFFFFFFFFFFF AND DUP2 MSTORE PUSH1 0x20 ADD SWAP1 DUP2 MSTORE PUSH1 0x20 ADD PUSH1 0x0 KECCAK256 DUP4 PUSH1 0x3 ADD SLOAD SWAP1 DUP1 PUSH1 0x1 DUP2 SLOAD ADD DUP1 DUP3 SSTORE DUP1 SWAP2 POP POP PUSH1 0x1 SWAP1 SUB SWAP1 PUSH1 0x0 MSTORE PUSH1 0x20 PUSH1 0x0 KECCAK256 ADD PUSH1 0x0 SWAP1 SWAP2 SWAP1 SWAP2 SWAP1 SWAP2 POP SSTORE DUP3 PUSH1 0x3 ADD SLOAD DUP4 PUSH1 0x3 ADD PUSH1 0x0 DUP3 DUP3 SLOAD PUSH2 0x680 SWAP2 SWAP1 PUSH2 0xC49 JUMP JUMPDEST SWAP3 POP POP DUP2 SWAP1 SSTORE POP DUP2 DUP4 PUSH1 0x1 ADD PUSH1 0x0 PUSH2 0x100 EXP DUP2 SLOAD DUP2 PUSH20 0xFFFFFFFFFFFFFFFFFFFFFFFFFFFFFFFFFFFFFFFF MUL NOT AND SWAP1 DUP4 PUSH20 0xFFFFFFFFFFFFFFFFFFFFFFFFFFFFFFFFFFFFFFFF AND MUL OR SWAP1 SSTORE POP POP POP POP POP JUMP JUMPDEST PUSH1 0x0 DUP1 PUSH1 0x0 DUP1 PUSH1 0x1 SLOAD DUP2 MSTORE PUSH1 0x20 ADD SWAP1 DUP2 MSTORE PUSH1 0x20 ADD PUSH1 0x0 KECCAK256 SWAP1 POP PUSH1 0x64 TIMESTAMP PUSH2 0x6F6 SWAP2 SWAP1 PUSH2 0xBF3 JUMP JUMPDEST DUP2 PUSH1 0x2 ADD DUP2 SWAP1 SSTORE POP PUSH1 0x1 DUP2 PUSH1 0x4 ADD PUSH1 0x0 PUSH2 0x100 EXP DUP2 SLOAD DUP2 PUSH1 0xFF MUL NOT AND SWAP1 DUP4 ISZERO ISZERO MUL OR SWAP1 SSTORE POP PUSH1 0x1 PUSH1 0x0 DUP2 SLOAD DUP1 SWAP3 SWAP2 SWAP1 PUSH2 0x72E SWAP1 PUSH2 0xCF6 JUMP JUMPDEST SWAP2 SWAP1 POP SSTORE POP POP SWAP1 JUMP JUMPDEST PUSH1 0x0 PUSH1 0x1 DUP4 MLOAD GT PUSH2 0x74B JUMPI PUSH2 0x74A PUSH2 0xD3F JUMP JUMPDEST JUMPDEST PUSH1 0x0 JUMPDEST DUP4 MLOAD DUP2 LT ISZERO PUSH2 0x7BC JUMPI DUP4 DUP2 DUP2 MLOAD DUP2 LT PUSH2 0x76A JUMPI PUSH2 0x769 PUSH2 0xD9D JUMP JUMPDEST JUMPDEST PUSH1 0x20 MUL PUSH1 0x20 ADD ADD MLOAD PUSH20 0xFFFFFFFFFFFFFFFFFFFFFFFFFFFFFFFFFFFFFFFF AND DUP4 PUSH20 0xFFFFFFFFFFFFFFFFFFFFFFFFFFFFFFFFFFFFFFFF AND EQ ISZERO PUSH2 0x7A9 JUMPI DUP1 SWAP2 POP JUMPDEST DUP1 DUP1 PUSH2 0x7B4 SWAP1 PUSH2 0xCF6 JUMP JUMPDEST SWAP2 POP POP PUSH2 0x74E JUMP JUMPDEST POP SWAP3 SWAP2 POP POP JUMP JUMPDEST PUSH1 0x0 DUP1 DUP3 DUP2 MSTORE PUSH1 0x20 ADD SWAP1 DUP2 MSTORE PUSH1 0x20 ADD PUSH1 0x0 KECCAK256 PUSH1 0x4 ADD PUSH1 0x0 SWAP1 SLOAD SWAP1 PUSH2 0x100 EXP SWAP1 DIV PUSH1 0xFF AND PUSH2 0x7F3 JUMPI PUSH2 0x7F2 PUSH2 0xD3F JUMP JUMPDEST JUMPDEST POP JUMP JUMPDEST PUSH1 0x0 DUP1 PUSH1 0x0 DUP4 DUP2 MSTORE PUSH1 0x20 ADD SWAP1 DUP2 MSTORE PUSH1 0x20 ADD PUSH1 0x0 KECCAK256 PUSH1 0x1 ADD PUSH1 0x0 PUSH2 0x100 EXP DUP2 SLOAD DUP2 PUSH20 0xFFFFFFFFFFFFFFFFFFFFFFFFFFFFFFFFFFFFFFFF MUL NOT AND SWAP1 DUP4 PUSH20 0xFFFFFFFFFFFFFFFFFFFFFFFFFFFFFFFFFFFFFFFF AND MUL OR SWAP1 SSTORE POP PUSH1 0x64 PUSH1 0x0 DUP1 DUP4 DUP2 MSTORE PUSH1 0x20 ADD SWAP1 DUP2 MSTORE PUSH1 0x20 ADD PUSH1 0x0 KECCAK256 PUSH1 0x2 ADD PUSH1 0x0 DUP3 DUP3 SLOAD PUSH2 0x871 SWAP2 SWAP1 PUSH2 0xBF3 JUMP JUMPDEST SWAP3 POP POP DUP2 SWAP1 SSTORE POP POP JUMP JUMPDEST PUSH1 0x0 PUSH2 0x88E PUSH2 0x889 DUP5 PUSH2 0xB8E JUMP JUMPDEST PUSH2 0xB69 JUMP JUMPDEST SWAP1 POP DUP1 DUP4 DUP3 MSTORE PUSH1 0x20 DUP3 ADD SWAP1 POP DUP3 DUP6 PUSH1 0x20 DUP7 MUL DUP3 ADD GT ISZERO PUSH2 0x8B1 JUMPI PUSH2 0x8B0 PUSH2 0xE00 JUMP JUMPDEST JUMPDEST PUSH1 0x0 JUMPDEST DUP6 DUP2 LT ISZERO PUSH2 0x8E1 JUMPI DUP2 PUSH2 0x8C7 DUP9 DUP3 PUSH2 0x8EB JUMP JUMPDEST DUP5 MSTORE PUSH1 0x20 DUP5 ADD SWAP4 POP PUSH1 0x20 DUP4 ADD SWAP3 POP POP PUSH1 0x1 DUP2 ADD SWAP1 POP PUSH2 0x8B4 JUMP JUMPDEST POP POP POP SWAP4 SWAP3 POP POP POP JUMP JUMPDEST PUSH1 0x0 DUP2 CALLDATALOAD SWAP1 POP PUSH2 0x8FA DUP2 PUSH2 0xE20 JUMP JUMPDEST SWAP3 SWAP2 POP POP JUMP JUMPDEST PUSH1 0x0 DUP3 PUSH1 0x1F DUP4 ADD SLT PUSH2 0x915 JUMPI PUSH2 0x914 PUSH2 0xDFB JUMP JUMPDEST JUMPDEST DUP2 CALLDATALOAD PUSH2 0x925 DUP5 DUP3 PUSH1 0x20 DUP7 ADD PUSH2 0x87B JUMP JUMPDEST SWAP2 POP POP SWAP3 SWAP2 POP POP JUMP JUMPDEST PUSH1 0x0 DUP2 CALLDATALOAD SWAP1 POP PUSH2 0x93D DUP2 PUSH2 0xE37 JUMP JUMPDEST SWAP3 SWAP2 POP POP JUMP JUMPDEST PUSH1 0x0 DUP1 PUSH1 0x40 DUP4 DUP6 SUB SLT ISZERO PUSH2 0x95A JUMPI PUSH2 0x959 PUSH2 0xE0A JUMP JUMPDEST JUMPDEST PUSH1 0x0 DUP4 ADD CALLDATALOAD PUSH8 0xFFFFFFFFFFFFFFFF DUP2 GT ISZERO PUSH2 0x978 JUMPI PUSH2 0x977 PUSH2 0xE05 JUMP JUMPDEST JUMPDEST PUSH2 0x984 DUP6 DUP3 DUP7 ADD PUSH2 0x900 JUMP JUMPDEST SWAP3 POP POP PUSH1 0x20 PUSH2 0x995 DUP6 DUP3 DUP7 ADD PUSH2 0x8EB JUMP JUMPDEST SWAP2 POP POP SWAP3 POP SWAP3 SWAP1 POP JUMP JUMPDEST PUSH1 0x0 PUSH1 0x20 DUP3 DUP5 SUB SLT ISZERO PUSH2 0x9B5 JUMPI PUSH2 0x9B4 PUSH2 0xE0A JUMP JUMPDEST JUMPDEST PUSH1 0x0 PUSH2 0x9C3 DUP5 DUP3 DUP6 ADD PUSH2 0x92E JUMP JUMPDEST SWAP2 POP POP SWAP3 SWAP2 POP POP JUMP JUMPDEST PUSH1 0x0 DUP1 PUSH1 0x40 DUP4 DUP6 SUB SLT ISZERO PUSH2 0x9E3 JUMPI PUSH2 0x9E2 PUSH2 0xE0A JUMP JUMPDEST JUMPDEST PUSH1 0x0 PUSH2 0x9F1 DUP6 DUP3 DUP7 ADD PUSH2 0x92E JUMP JUMPDEST SWAP3 POP POP PUSH1 0x20 PUSH2 0xA02 DUP6 DUP3 DUP7 ADD PUSH2 0x8EB JUMP JUMPDEST SWAP2 POP POP SWAP3 POP SWAP3 SWAP1 POP JUMP JUMPDEST PUSH1 0x0 PUSH2 0xA18 DUP4 DUP4 PUSH2 0xAA0 JUMP JUMPDEST PUSH1 0x20 DUP4 ADD SWAP1 POP SWAP3 SWAP2 POP POP JUMP JUMPDEST PUSH2 0xA2D DUP2 PUSH2 0xC7D JUMP JUMPDEST DUP3 MSTORE POP POP JUMP JUMPDEST PUSH1 0x0 PUSH2 0xA3E DUP3 PUSH2 0xBCA JUMP JUMPDEST PUSH2 0xA48 DUP2 DUP6 PUSH2 0xBE2 JUMP JUMPDEST SWAP4 POP PUSH2 0xA53 DUP4 PUSH2 0xBBA JUMP JUMPDEST DUP1 PUSH1 0x0 JUMPDEST DUP4 DUP2 LT ISZERO PUSH2 0xA84 JUMPI DUP2 MLOAD PUSH2 0xA6B DUP9 DUP3 PUSH2 0xA0C JUMP JUMPDEST SWAP8 POP PUSH2 0xA76 DUP4 PUSH2 0xBD5 JUMP JUMPDEST SWAP3 POP POP PUSH1 0x1 DUP2 ADD SWAP1 POP PUSH2 0xA57 JUMP JUMPDEST POP DUP6 SWAP4 POP POP POP POP SWAP3 SWAP2 POP POP JUMP JUMPDEST PUSH2 0xA9A DUP2 PUSH2 0xC8F JUMP JUMPDEST DUP3 MSTORE POP POP JUMP JUMPDEST PUSH2 0xAA9 DUP2 PUSH2 0xCBB JUMP JUMPDEST DUP3 MSTORE POP POP JUMP JUMPDEST PUSH2 0xAB8 DUP2 PUSH2 0xCBB JUMP JUMPDEST DUP3 MSTORE POP POP JUMP JUMPDEST PUSH1 0x0 PUSH1 0x40 DUP3 ADD SWAP1 POP PUSH2 0xAD3 PUSH1 0x0 DUP4 ADD DUP6 PUSH2 0xA24 JUMP JUMPDEST PUSH2 0xAE0 PUSH1 0x20 DUP4 ADD DUP5 PUSH2 0xAAF JUMP JUMPDEST SWAP4 SWAP3 POP POP POP JUMP JUMPDEST PUSH1 0x0 PUSH1 0x80 DUP3 ADD SWAP1 POP PUSH2 0xAFC PUSH1 0x0 DUP4 ADD DUP8 PUSH2 0xA24 JUMP JUMPDEST PUSH2 0xB09 PUSH1 0x20 DUP4 ADD DUP7 PUSH2 0xAAF JUMP JUMPDEST PUSH2 0xB16 PUSH1 0x40 DUP4 ADD DUP6 PUSH2 0xAAF JUMP JUMPDEST PUSH2 0xB23 PUSH1 0x60 DUP4 ADD DUP5 PUSH2 0xA91 JUMP JUMPDEST SWAP6 SWAP5 POP POP POP POP POP JUMP JUMPDEST PUSH1 0x0 PUSH1 0x20 DUP3 ADD SWAP1 POP DUP2 DUP2 SUB PUSH1 0x0 DUP4 ADD MSTORE PUSH2 0xB46 DUP2 DUP5 PUSH2 0xA33 JUMP JUMPDEST SWAP1 POP SWAP3 SWAP2 POP POP JUMP JUMPDEST PUSH1 0x0 PUSH1 0x20 DUP3 ADD SWAP1 POP PUSH2 0xB63 PUSH1 0x0 DUP4 ADD DUP5 PUSH2 0xAAF JUMP JUMPDEST SWAP3 SWAP2 POP POP JUMP JUMPDEST PUSH1 0x0 PUSH2 0xB73 PUSH2 0xB84 JUMP JUMPDEST SWAP1 POP PUSH2 0xB7F DUP3 DUP3 PUSH2 0xCC5 JUMP JUMPDEST SWAP2 SWAP1 POP JUMP JUMPDEST PUSH1 0x0 PUSH1 0x40 MLOAD SWAP1 POP SWAP1 JUMP JUMPDEST PUSH1 0x0 PUSH8 0xFFFFFFFFFFFFFFFF DUP3 GT ISZERO PUSH2 0xBA9 JUMPI PUSH2 0xBA8 PUSH2 0xDCC JUMP JUMPDEST JUMPDEST PUSH1 0x20 DUP3 MUL SWAP1 POP PUSH1 0x20 DUP2 ADD SWAP1 POP SWAP2 SWAP1 POP JUMP JUMPDEST PUSH1 0x0 DUP2 SWAP1 POP PUSH1 0x20 DUP3 ADD SWAP1 POP SWAP2 SWAP1 POP JUMP JUMPDEST PUSH1 0x0 DUP2 MLOAD SWAP1 POP SWAP2 SWAP1 POP JUMP JUMPDEST PUSH1 0x0 PUSH1 0x20 DUP3 ADD SWAP1 POP SWAP2 SWAP1 POP JUMP JUMPDEST PUSH1 0x0 DUP3 DUP3 MSTORE PUSH1 0x20 DUP3 ADD SWAP1 POP SWAP3 SWAP2 POP POP JUMP JUMPDEST PUSH1 0x0 PUSH2 0xBFE DUP3 PUSH2 0xCBB JUMP JUMPDEST SWAP2 POP PUSH2 0xC09 DUP4 PUSH2 0xCBB JUMP JUMPDEST SWAP3 POP DUP3 PUSH32 0xFFFFFFFFFFFFFFFFFFFFFFFFFFFFFFFFFFFFFFFFFFFFFFFFFFFFFFFFFFFFFFFF SUB DUP3 GT ISZERO PUSH2 0xC3E JUMPI PUSH2 0xC3D PUSH2 0xD6E JUMP JUMPDEST JUMPDEST DUP3 DUP3 ADD SWAP1 POP SWAP3 SWAP2 POP POP JUMP JUMPDEST PUSH1 0x0 PUSH2 0xC54 DUP3 PUSH2 0xCBB JUMP JUMPDEST SWAP2 POP PUSH2 0xC5F DUP4 PUSH2 0xCBB JUMP JUMPDEST SWAP3 POP DUP3 DUP3 LT ISZERO PUSH2 0xC72 JUMPI PUSH2 0xC71 PUSH2 0xD6E JUMP JUMPDEST JUMPDEST DUP3 DUP3 SUB SWAP1 POP SWAP3 SWAP2 POP POP JUMP JUMPDEST PUSH1 0x0 PUSH2 0xC88 DUP3 PUSH2 0xC9B JUMP JUMPDEST SWAP1 POP SWAP2 SWAP1 POP JUMP JUMPDEST PUSH1 0x0 DUP2 ISZERO ISZERO SWAP1 POP SWAP2 SWAP1 POP JUMP JUMPDEST PUSH1 0x0 PUSH20 0xFFFFFFFFFFFFFFFFFFFFFFFFFFFFFFFFFFFFFFFF DUP3 AND SWAP1 POP SWAP2 SWAP1 POP JUMP JUMPDEST PUSH1 0x0 DUP2 SWAP1 POP SWAP2 SWAP1 POP JUMP JUMPDEST PUSH2 0xCCE DUP3 PUSH2 0xE0F JUMP JUMPDEST DUP2 ADD DUP2 DUP2 LT PUSH8 0xFFFFFFFFFFFFFFFF DUP3 GT OR ISZERO PUSH2 0xCED JUMPI PUSH2 0xCEC PUSH2 0xDCC JUMP JUMPDEST JUMPDEST DUP1 PUSH1 0x40 MSTORE POP POP POP JUMP JUMPDEST PUSH1 0x0 PUSH2 0xD01 DUP3 PUSH2 0xCBB JUMP JUMPDEST SWAP2 POP PUSH32 0xFFFFFFFFFFFFFFFFFFFFFFFFFFFFFFFFFFFFFFFFFFFFFFFFFFFFFFFFFFFFFFFF DUP3 EQ ISZERO PUSH2 0xD34 JUMPI PUSH2 0xD33 PUSH2 0xD6E JUMP JUMPDEST JUMPDEST PUSH1 0x1 DUP3 ADD SWAP1 POP SWAP2 SWAP1 POP JUMP JUMPDEST PUSH32 0x4E487B7100000000000000000000000000000000000000000000000000000000 PUSH1 0x0 MSTORE PUSH1 0x1 PUSH1 0x4 MSTORE PUSH1 0x24 PUSH1 0x0 REVERT JUMPDEST PUSH32 0x4E487B7100000000000000000000000000000000000000000000000000000000 PUSH1 0x0 MSTORE PUSH1 0x11 PUSH1 0x4 MSTORE PUSH1 0x24 PUSH1 0x0 REVERT JUMPDEST PUSH32 0x4E487B7100000000000000000000000000000000000000000000000000000000 PUSH1 0x0 MSTORE PUSH1 0x32 PUSH1 0x4 MSTORE PUSH1 0x24 PUSH1 0x0 REVERT JUMPDEST PUSH32 0x4E487B7100000000000000000000000000000000000000000000000000000000 PUSH1 0x0 MSTORE PUSH1 0x41 PUSH1 0x4 MSTORE PUSH1 0x24 PUSH1 0x0 REVERT JUMPDEST PUSH1 0x0 DUP1 REVERT JUMPDEST PUSH1 0x0 DUP1 REVERT JUMPDEST PUSH1 0x0 DUP1 REVERT JUMPDEST PUSH1 0x0 DUP1 REVERT JUMPDEST PUSH1 0x0 PUSH1 0x1F NOT PUSH1 0x1F DUP4 ADD AND SWAP1 POP SWAP2 SWAP1 POP JUMP JUMPDEST PUSH2 0xE29 DUP2 PUSH2 0xC7D JUMP JUMPDEST DUP2 EQ PUSH2 0xE34 JUMPI PUSH1 0x0 DUP1 REVERT JUMPDEST POP JUMP JUMPDEST PUSH2 0xE40 DUP2 PUSH2 0xCBB JUMP JUMPDEST DUP2 EQ PUSH2 0xE4B JUMPI PUSH1 0x0 DUP1 REVERT JUMPDEST POP JUMP INVALID LOG2 PUSH5 0x6970667358 0x22 SLT KECCAK256 0x5C 0xAE 0xCA SWAP4 0x29 0xC9 SWAP7 0x27 0x4C CALLER 0xD9 SWAP8 0xCD CALLDATASIZE 0xAE RETURN 0xC8 0x2A SWAP9 LOG4 0xD4 PUSH32 0xAFC2F1700A564937535864736F6C634300080600330000000000000000000000 "
		},
		"gasEstimates": {
			"creation": {
				"codeDepositCost": "743200",
				"executionCost": "5785",
				"totalCost": "748985"
			},
			"external": {
				"addThrift()": "infinite",
				"collectThrift(uint256)": "infinite",
				"getNextCollector(address[],address)": "infinite",
				"joinThrift(uint256)": "infinite",
				"returnBalance(uint256,address)": "infinite",
				"thrifts(uint256)": "infinite"
			},
			"internal": {
				"confirm(uint256)": "2282",
				"findIndex(address[] memory,address)": "infinite",
				"reset(uint256)": "infinite"
			}
		},
		"methodIdentifiers": {
			"addThrift()": "ffcbae5a",
			"collectThrift(uint256)": "be4ee9f6",
			"getNextCollector(address[],address)": "4f7d9418",
			"joinThrift(uint256)": "9412c7dd",
			"returnBalance(uint256,address)": "7c5716ee",
			"thrifts(uint256)": "b01c963b"
		}
	},
	"abi": [
		{
			"inputs": [],
			"name": "addThrift",
			"outputs": [
				{
					"internalType": "uint256",
					"name": "tIndex_",
					"type": "uint256"
				}
			],
			"stateMutability": "nonpayable",
			"type": "function"
		},
		{
			"inputs": [
				{
					"internalType": "uint256",
					"name": "_tId",
					"type": "uint256"
				}
			],
			"name": "collectThrift",
			"outputs": [],
			"stateMutability": "nonpayable",
			"type": "function"
		},
		{
			"inputs": [
				{
					"internalType": "address[]",
					"name": "_in",
					"type": "address[]"
				},
				{
					"internalType": "address",
					"name": "_last",
					"type": "address"
				}
			],
			"name": "getNextCollector",
			"outputs": [
				{
					"internalType": "address",
					"name": "_next",
					"type": "address"
				},
				{
					"internalType": "uint256",
					"name": "index",
					"type": "uint256"
				}
			],
			"stateMutability": "nonpayable",
			"type": "function"
		},
		{
			"inputs": [
				{
					"internalType": "uint256",
					"name": "_thriftId",
					"type": "uint256"
				}
			],
			"name": "joinThrift",
			"outputs": [],
			"stateMutability": "payable",
			"type": "function"
		},
		{
			"inputs": [
				{
					"internalType": "uint256",
					"name": "_id",
					"type": "uint256"
				},
				{
					"internalType": "address",
					"name": "_addr",
					"type": "address"
				}
			],
			"name": "returnBalance",
			"outputs": [
				{
					"internalType": "uint256[]",
					"name": "_amount",
					"type": "uint256[]"
				}
			],
			"stateMutability": "view",
			"type": "function"
		},
		{
			"inputs": [
				{
					"internalType": "uint256",
					"name": "",
					"type": "uint256"
				}
			],
			"name": "thrifts",
			"outputs": [
				{
					"internalType": "address",
					"name": "lastCollector",
					"type": "address"
				},
				{
					"internalType": "uint256",
					"name": "maturityTime",
					"type": "uint256"
				},
				{
					"internalType": "uint256",
					"name": "totalAmount",
					"type": "uint256"
				},
				{
					"internalType": "bool",
					"name": "valid",
					"type": "bool"
				}
			],
			"stateMutability": "view",
			"type": "function"
		}
	]
}